{
	"tests/exercise2.sol": {
		"Exercise2": {
			"abi": [
				{
					"inputs": [
						{
							"internalType": "uint256",
							"name": "_width",
							"type": "uint256"
						},
						{
							"internalType": "uint256",
							"name": "_length",
							"type": "uint256"
						},
						{
							"internalType": "uint256",
							"name": "_height",
							"type": "uint256"
						}
					],
					"name": "addBox",
					"outputs": [],
					"stateMutability": "nonpayable",
					"type": "function"
				},
				{
					"inputs": [
						{
							"internalType": "uint256",
							"name": "",
							"type": "uint256"
						}
					],
					"name": "boxes",
					"outputs": [
						{
							"internalType": "uint256",
							"name": "width",
							"type": "uint256"
						},
						{
							"internalType": "uint256",
							"name": "length",
							"type": "uint256"
						},
						{
							"internalType": "uint256",
							"name": "height",
							"type": "uint256"
						}
					],
					"stateMutability": "view",
					"type": "function"
				}
			],
			"devdoc": {
				"kind": "dev",
				"methods": {},
				"version": 1
			},
			"evm": {
				"assembly": "    /* \"tests/exercise2.sol\":61:388  contract Exercise2 {... */\n  mstore(0x40, 0x80)\n  callvalue\n  dup1\n  iszero\n  tag_1\n  jumpi\n  0x00\n  dup1\n  revert\ntag_1:\n  pop\n  dataSize(sub_0)\n  dup1\n  dataOffset(sub_0)\n  0x00\n  codecopy\n  0x00\n  return\nstop\n\nsub_0: assembly {\n        /* \"tests/exercise2.sol\":61:388  contract Exercise2 {... */\n      mstore(0x40, 0x80)\n      callvalue\n      dup1\n      iszero\n      tag_1\n      jumpi\n      0x00\n      dup1\n      revert\n    tag_1:\n      pop\n      jumpi(tag_2, lt(calldatasize, 0x04))\n      shr(0xe0, calldataload(0x00))\n      dup1\n      0x4ed3faf2\n      eq\n      tag_3\n      jumpi\n      dup1\n      0xaa1a3a59\n      eq\n      tag_4\n      jumpi\n    tag_2:\n      0x00\n      dup1\n      revert\n        /* \"tests/exercise2.sol\":188:206  Box[] public boxes */\n    tag_3:\n      tag_5\n      0x04\n      dup1\n      calldatasize\n      sub\n      dup2\n      add\n      swap1\n      tag_6\n      swap2\n      swap1\n      tag_7\n      jump\t// in\n    tag_6:\n      tag_8\n      jump\t// in\n    tag_5:\n      mload(0x40)\n      tag_9\n      swap4\n      swap3\n      swap2\n      swap1\n      tag_10\n      jump\t// in\n    tag_9:\n      mload(0x40)\n      dup1\n      swap2\n      sub\n      swap1\n      return\n        /* \"tests/exercise2.sol\":215:385  function addBox(uint256 _width, uint256 _length, uint256 _height) public {... */\n    tag_4:\n      tag_11\n      0x04\n      dup1\n      calldatasize\n      sub\n      dup2\n      add\n      swap1\n      tag_12\n      swap2\n      swap1\n      tag_13\n      jump\t// in\n    tag_12:\n      tag_14\n      jump\t// in\n    tag_11:\n      stop\n        /* \"tests/exercise2.sol\":188:206  Box[] public boxes */\n    tag_8:\n      0x00\n      dup2\n      dup2\n      sload\n      dup2\n      lt\n      tag_15\n      jumpi\n      0x00\n      dup1\n      revert\n    tag_15:\n      swap1\n      0x00\n      mstore\n      keccak256(0x00, 0x20)\n      swap1\n      0x03\n      mul\n      add\n      0x00\n      swap2\n      pop\n      swap1\n      pop\n      dup1\n      0x00\n      add\n      sload\n      swap1\n      dup1\n      0x01\n      add\n      sload\n      swap1\n      dup1\n      0x02\n      add\n      sload\n      swap1\n      pop\n      dup4\n      jump\t// out\n        /* \"tests/exercise2.sol\":215:385  function addBox(uint256 _width, uint256 _length, uint256 _height) public {... */\n    tag_14:\n        /* \"tests/exercise2.sol\":299:316  Box memory newBox */\n      0x00\n        /* \"tests/exercise2.sol\":319:348  Box(_width, _length, _height) */\n      mload(0x40)\n      dup1\n      0x60\n      add\n      0x40\n      mstore\n      dup1\n        /* \"tests/exercise2.sol\":323:329  _width */\n      dup6\n        /* \"tests/exercise2.sol\":319:348  Box(_width, _length, _height) */\n      dup2\n      mstore\n      0x20\n      add\n        /* \"tests/exercise2.sol\":331:338  _length */\n      dup5\n        /* \"tests/exercise2.sol\":319:348  Box(_width, _length, _height) */\n      dup2\n      mstore\n      0x20\n      add\n        /* \"tests/exercise2.sol\":340:347  _height */\n      dup4\n        /* \"tests/exercise2.sol\":319:348  Box(_width, _length, _height) */\n      dup2\n      mstore\n      pop\n        /* \"tests/exercise2.sol\":299:348  Box memory newBox = Box(_width, _length, _height) */\n      swap1\n      pop\n        /* \"tests/exercise2.sol\":359:364  boxes */\n      0x00\n        /* \"tests/exercise2.sol\":370:376  newBox */\n      dup2\n        /* \"tests/exercise2.sol\":359:377  boxes.push(newBox) */\n      swap1\n      dup1\n      0x01\n      dup2\n      sload\n      add\n      dup1\n      dup3\n      sstore\n      dup1\n      swap2\n      pop\n      pop\n      0x01\n      swap1\n      sub\n      swap1\n      0x00\n      mstore\n      keccak256(0x00, 0x20)\n      swap1\n      0x03\n      mul\n      add\n      0x00\n      swap1\n      swap2\n      swap1\n      swap2\n      swap1\n      swap2\n      pop\n      0x00\n      dup3\n      add\n      mload\n      dup2\n      0x00\n      add\n      sstore\n      0x20\n      dup3\n      add\n      mload\n      dup2\n      0x01\n      add\n      sstore\n      0x40\n      dup3\n      add\n      mload\n      dup2\n      0x02\n      add\n      sstore\n      pop\n      pop\n        /* \"tests/exercise2.sol\":288:385  {... */\n      pop\n        /* \"tests/exercise2.sol\":215:385  function addBox(uint256 _width, uint256 _length, uint256 _height) public {... */\n      pop\n      pop\n      pop\n      jump\t// out\n        /* \"#utility.yul\":88:205   */\n    tag_20:\n        /* \"#utility.yul\":197:198   */\n      0x00\n        /* \"#utility.yul\":194:195   */\n      dup1\n        /* \"#utility.yul\":187:199   */\n      revert\n        /* \"#utility.yul\":334:411   */\n    tag_22:\n        /* \"#utility.yul\":371:378   */\n      0x00\n        /* \"#utility.yul\":400:405   */\n      dup2\n        /* \"#utility.yul\":389:405   */\n      swap1\n      pop\n        /* \"#utility.yul\":334:411   */\n      swap2\n      swap1\n      pop\n      jump\t// out\n        /* \"#utility.yul\":417:539   */\n    tag_23:\n        /* \"#utility.yul\":490:514   */\n      tag_32\n        /* \"#utility.yul\":508:513   */\n      dup2\n        /* \"#utility.yul\":490:514   */\n      tag_22\n      jump\t// in\n    tag_32:\n        /* \"#utility.yul\":483:488   */\n      dup2\n        /* \"#utility.yul\":480:515   */\n      eq\n        /* \"#utility.yul\":470:533   */\n      tag_33\n      jumpi\n        /* \"#utility.yul\":529:530   */\n      0x00\n        /* \"#utility.yul\":526:527   */\n      dup1\n        /* \"#utility.yul\":519:531   */\n      revert\n        /* \"#utility.yul\":470:533   */\n    tag_33:\n        /* \"#utility.yul\":417:539   */\n      pop\n      jump\t// out\n        /* \"#utility.yul\":545:684   */\n    tag_24:\n        /* \"#utility.yul\":591:596   */\n      0x00\n        /* \"#utility.yul\":629:635   */\n      dup2\n        /* \"#utility.yul\":616:636   */\n      calldataload\n        /* \"#utility.yul\":607:636   */\n      swap1\n      pop\n        /* \"#utility.yul\":645:678   */\n      tag_35\n        /* \"#utility.yul\":672:677   */\n      dup2\n        /* \"#utility.yul\":645:678   */\n      tag_23\n      jump\t// in\n    tag_35:\n        /* \"#utility.yul\":545:684   */\n      swap3\n      swap2\n      pop\n      pop\n      jump\t// out\n        /* \"#utility.yul\":690:1019   */\n    tag_7:\n        /* \"#utility.yul\":749:755   */\n      0x00\n        /* \"#utility.yul\":798:800   */\n      0x20\n        /* \"#utility.yul\":786:795   */\n      dup3\n        /* \"#utility.yul\":777:784   */\n      dup5\n        /* \"#utility.yul\":773:796   */\n      sub\n        /* \"#utility.yul\":769:801   */\n      slt\n        /* \"#utility.yul\":766:885   */\n      iszero\n      tag_37\n      jumpi\n        /* \"#utility.yul\":804:883   */\n      tag_38\n      tag_20\n      jump\t// in\n    tag_38:\n        /* \"#utility.yul\":766:885   */\n    tag_37:\n        /* \"#utility.yul\":924:925   */\n      0x00\n        /* \"#utility.yul\":949:1002   */\n      tag_39\n        /* \"#utility.yul\":994:1001   */\n      dup5\n        /* \"#utility.yul\":985:991   */\n      dup3\n        /* \"#utility.yul\":974:983   */\n      dup6\n        /* \"#utility.yul\":970:992   */\n      add\n        /* \"#utility.yul\":949:1002   */\n      tag_24\n      jump\t// in\n    tag_39:\n        /* \"#utility.yul\":939:1002   */\n      swap2\n      pop\n        /* \"#utility.yul\":895:1012   */\n      pop\n        /* \"#utility.yul\":690:1019   */\n      swap3\n      swap2\n      pop\n      pop\n      jump\t// out\n        /* \"#utility.yul\":1025:1143   */\n    tag_25:\n        /* \"#utility.yul\":1112:1136   */\n      tag_41\n        /* \"#utility.yul\":1130:1135   */\n      dup2\n        /* \"#utility.yul\":1112:1136   */\n      tag_22\n      jump\t// in\n    tag_41:\n        /* \"#utility.yul\":1107:1110   */\n      dup3\n        /* \"#utility.yul\":1100:1137   */\n      mstore\n        /* \"#utility.yul\":1025:1143   */\n      pop\n      pop\n      jump\t// out\n        /* \"#utility.yul\":1149:1591   */\n    tag_10:\n        /* \"#utility.yul\":1298:1302   */\n      0x00\n        /* \"#utility.yul\":1336:1338   */\n      0x60\n        /* \"#utility.yul\":1325:1334   */\n      dup3\n        /* \"#utility.yul\":1321:1339   */\n      add\n        /* \"#utility.yul\":1313:1339   */\n      swap1\n      pop\n        /* \"#utility.yul\":1349:1420   */\n      tag_43\n        /* \"#utility.yul\":1417:1418   */\n      0x00\n        /* \"#utility.yul\":1406:1415   */\n      dup4\n        /* \"#utility.yul\":1402:1419   */\n      add\n        /* \"#utility.yul\":1393:1399   */\n      dup7\n        /* \"#utility.yul\":1349:1420   */\n      tag_25\n      jump\t// in\n    tag_43:\n        /* \"#utility.yul\":1430:1502   */\n      tag_44\n        /* \"#utility.yul\":1498:1500   */\n      0x20\n        /* \"#utility.yul\":1487:1496   */\n      dup4\n        /* \"#utility.yul\":1483:1501   */\n      add\n        /* \"#utility.yul\":1474:1480   */\n      dup6\n        /* \"#utility.yul\":1430:1502   */\n      tag_25\n      jump\t// in\n    tag_44:\n        /* \"#utility.yul\":1512:1584   */\n      tag_45\n        /* \"#utility.yul\":1580:1582   */\n      0x40\n        /* \"#utility.yul\":1569:1578   */\n      dup4\n        /* \"#utility.yul\":1565:1583   */\n      add\n        /* \"#utility.yul\":1556:1562   */\n      dup5\n        /* \"#utility.yul\":1512:1584   */\n      tag_25\n      jump\t// in\n    tag_45:\n        /* \"#utility.yul\":1149:1591   */\n      swap5\n      swap4\n      pop\n      pop\n      pop\n      pop\n      jump\t// out\n        /* \"#utility.yul\":1597:2216   */\n    tag_13:\n        /* \"#utility.yul\":1674:1680   */\n      0x00\n        /* \"#utility.yul\":1682:1688   */\n      dup1\n        /* \"#utility.yul\":1690:1696   */\n      0x00\n        /* \"#utility.yul\":1739:1741   */\n      0x60\n        /* \"#utility.yul\":1727:1736   */\n      dup5\n        /* \"#utility.yul\":1718:1725   */\n      dup7\n        /* \"#utility.yul\":1714:1737   */\n      sub\n        /* \"#utility.yul\":1710:1742   */\n      slt\n        /* \"#utility.yul\":1707:1826   */\n      iszero\n      tag_47\n      jumpi\n        /* \"#utility.yul\":1745:1824   */\n      tag_48\n      tag_20\n      jump\t// in\n    tag_48:\n        /* \"#utility.yul\":1707:1826   */\n    tag_47:\n        /* \"#utility.yul\":1865:1866   */\n      0x00\n        /* \"#utility.yul\":1890:1943   */\n      tag_49\n        /* \"#utility.yul\":1935:1942   */\n      dup7\n        /* \"#utility.yul\":1926:1932   */\n      dup3\n        /* \"#utility.yul\":1915:1924   */\n      dup8\n        /* \"#utility.yul\":1911:1933   */\n      add\n        /* \"#utility.yul\":1890:1943   */\n      tag_24\n      jump\t// in\n    tag_49:\n        /* \"#utility.yul\":1880:1943   */\n      swap4\n      pop\n        /* \"#utility.yul\":1836:1953   */\n      pop\n        /* \"#utility.yul\":1992:1994   */\n      0x20\n        /* \"#utility.yul\":2018:2071   */\n      tag_50\n        /* \"#utility.yul\":2063:2070   */\n      dup7\n        /* \"#utility.yul\":2054:2060   */\n      dup3\n        /* \"#utility.yul\":2043:2052   */\n      dup8\n        /* \"#utility.yul\":2039:2061   */\n      add\n        /* \"#utility.yul\":2018:2071   */\n      tag_24\n      jump\t// in\n    tag_50:\n        /* \"#utility.yul\":2008:2071   */\n      swap3\n      pop\n        /* \"#utility.yul\":1963:2081   */\n      pop\n        /* \"#utility.yul\":2120:2122   */\n      0x40\n        /* \"#utility.yul\":2146:2199   */\n      tag_51\n        /* \"#utility.yul\":2191:2198   */\n      dup7\n        /* \"#utility.yul\":2182:2188   */\n      dup3\n        /* \"#utility.yul\":2171:2180   */\n      dup8\n        /* \"#utility.yul\":2167:2189   */\n      add\n        /* \"#utility.yul\":2146:2199   */\n      tag_24\n      jump\t// in\n    tag_51:\n        /* \"#utility.yul\":2136:2199   */\n      swap2\n      pop\n        /* \"#utility.yul\":2091:2209   */\n      pop\n        /* \"#utility.yul\":1597:2216   */\n      swap3\n      pop\n      swap3\n      pop\n      swap3\n      jump\t// out\n\n    auxdata: 0xa2646970667358221220749a4bf9ca95305c4b14fa2d37198abc7ce95be34a83e671fbe1f24ddb7055c964736f6c634300081a0033\n}\n",
				"bytecode": {
					"linkReferences": {},
					"object": "6080604052348015600e575f80fd5b506102508061001c5f395ff3fe608060405234801561000f575f80fd5b5060043610610034575f3560e01c80634ed3faf214610038578063aa1a3a591461006a575b5f80fd5b610052600480360381019061004d919061015b565b610086565b60405161006193929190610195565b60405180910390f35b610084600480360381019061007f91906101ca565b6100ba565b005b5f8181548110610094575f80fd5b905f5260205f2090600302015f91509050805f0154908060010154908060020154905083565b5f60405180606001604052808581526020018481526020018381525090505f81908060018154018082558091505060019003905f5260205f2090600302015f909190919091505f820151815f01556020820151816001015560408201518160020155505050505050565b5f80fd5b5f819050919050565b61013a81610128565b8114610144575f80fd5b50565b5f8135905061015581610131565b92915050565b5f602082840312156101705761016f610124565b5b5f61017d84828501610147565b91505092915050565b61018f81610128565b82525050565b5f6060820190506101a85f830186610186565b6101b56020830185610186565b6101c26040830184610186565b949350505050565b5f805f606084860312156101e1576101e0610124565b5b5f6101ee86828701610147565b93505060206101ff86828701610147565b925050604061021086828701610147565b915050925092509256fea2646970667358221220749a4bf9ca95305c4b14fa2d37198abc7ce95be34a83e671fbe1f24ddb7055c964736f6c634300081a0033",
					"opcodes": "PUSH1 0x80 PUSH1 0x40 MSTORE CALLVALUE DUP1 ISZERO PUSH1 0xE JUMPI PUSH0 DUP1 REVERT JUMPDEST POP PUSH2 0x250 DUP1 PUSH2 0x1C PUSH0 CODECOPY PUSH0 RETURN INVALID PUSH1 0x80 PUSH1 0x40 MSTORE CALLVALUE DUP1 ISZERO PUSH2 0xF JUMPI PUSH0 DUP1 REVERT JUMPDEST POP PUSH1 0x4 CALLDATASIZE LT PUSH2 0x34 JUMPI PUSH0 CALLDATALOAD PUSH1 0xE0 SHR DUP1 PUSH4 0x4ED3FAF2 EQ PUSH2 0x38 JUMPI DUP1 PUSH4 0xAA1A3A59 EQ PUSH2 0x6A JUMPI JUMPDEST PUSH0 DUP1 REVERT JUMPDEST PUSH2 0x52 PUSH1 0x4 DUP1 CALLDATASIZE SUB DUP2 ADD SWAP1 PUSH2 0x4D SWAP2 SWAP1 PUSH2 0x15B JUMP JUMPDEST PUSH2 0x86 JUMP JUMPDEST PUSH1 0x40 MLOAD PUSH2 0x61 SWAP4 SWAP3 SWAP2 SWAP1 PUSH2 0x195 JUMP JUMPDEST PUSH1 0x40 MLOAD DUP1 SWAP2 SUB SWAP1 RETURN JUMPDEST PUSH2 0x84 PUSH1 0x4 DUP1 CALLDATASIZE SUB DUP2 ADD SWAP1 PUSH2 0x7F SWAP2 SWAP1 PUSH2 0x1CA JUMP JUMPDEST PUSH2 0xBA JUMP JUMPDEST STOP JUMPDEST PUSH0 DUP2 DUP2 SLOAD DUP2 LT PUSH2 0x94 JUMPI PUSH0 DUP1 REVERT JUMPDEST SWAP1 PUSH0 MSTORE PUSH1 0x20 PUSH0 KECCAK256 SWAP1 PUSH1 0x3 MUL ADD PUSH0 SWAP2 POP SWAP1 POP DUP1 PUSH0 ADD SLOAD SWAP1 DUP1 PUSH1 0x1 ADD SLOAD SWAP1 DUP1 PUSH1 0x2 ADD SLOAD SWAP1 POP DUP4 JUMP JUMPDEST PUSH0 PUSH1 0x40 MLOAD DUP1 PUSH1 0x60 ADD PUSH1 0x40 MSTORE DUP1 DUP6 DUP2 MSTORE PUSH1 0x20 ADD DUP5 DUP2 MSTORE PUSH1 0x20 ADD DUP4 DUP2 MSTORE POP SWAP1 POP PUSH0 DUP2 SWAP1 DUP1 PUSH1 0x1 DUP2 SLOAD ADD DUP1 DUP3 SSTORE DUP1 SWAP2 POP POP PUSH1 0x1 SWAP1 SUB SWAP1 PUSH0 MSTORE PUSH1 0x20 PUSH0 KECCAK256 SWAP1 PUSH1 0x3 MUL ADD PUSH0 SWAP1 SWAP2 SWAP1 SWAP2 SWAP1 SWAP2 POP PUSH0 DUP3 ADD MLOAD DUP2 PUSH0 ADD SSTORE PUSH1 0x20 DUP3 ADD MLOAD DUP2 PUSH1 0x1 ADD SSTORE PUSH1 0x40 DUP3 ADD MLOAD DUP2 PUSH1 0x2 ADD SSTORE POP POP POP POP POP POP JUMP JUMPDEST PUSH0 DUP1 REVERT JUMPDEST PUSH0 DUP2 SWAP1 POP SWAP2 SWAP1 POP JUMP JUMPDEST PUSH2 0x13A DUP2 PUSH2 0x128 JUMP JUMPDEST DUP2 EQ PUSH2 0x144 JUMPI PUSH0 DUP1 REVERT JUMPDEST POP JUMP JUMPDEST PUSH0 DUP2 CALLDATALOAD SWAP1 POP PUSH2 0x155 DUP2 PUSH2 0x131 JUMP JUMPDEST SWAP3 SWAP2 POP POP JUMP JUMPDEST PUSH0 PUSH1 0x20 DUP3 DUP5 SUB SLT ISZERO PUSH2 0x170 JUMPI PUSH2 0x16F PUSH2 0x124 JUMP JUMPDEST JUMPDEST PUSH0 PUSH2 0x17D DUP5 DUP3 DUP6 ADD PUSH2 0x147 JUMP JUMPDEST SWAP2 POP POP SWAP3 SWAP2 POP POP JUMP JUMPDEST PUSH2 0x18F DUP2 PUSH2 0x128 JUMP JUMPDEST DUP3 MSTORE POP POP JUMP JUMPDEST PUSH0 PUSH1 0x60 DUP3 ADD SWAP1 POP PUSH2 0x1A8 PUSH0 DUP4 ADD DUP7 PUSH2 0x186 JUMP JUMPDEST PUSH2 0x1B5 PUSH1 0x20 DUP4 ADD DUP6 PUSH2 0x186 JUMP JUMPDEST PUSH2 0x1C2 PUSH1 0x40 DUP4 ADD DUP5 PUSH2 0x186 JUMP JUMPDEST SWAP5 SWAP4 POP POP POP POP JUMP JUMPDEST PUSH0 DUP1 PUSH0 PUSH1 0x60 DUP5 DUP7 SUB SLT ISZERO PUSH2 0x1E1 JUMPI PUSH2 0x1E0 PUSH2 0x124 JUMP JUMPDEST JUMPDEST PUSH0 PUSH2 0x1EE DUP7 DUP3 DUP8 ADD PUSH2 0x147 JUMP JUMPDEST SWAP4 POP POP PUSH1 0x20 PUSH2 0x1FF DUP7 DUP3 DUP8 ADD PUSH2 0x147 JUMP JUMPDEST SWAP3 POP POP PUSH1 0x40 PUSH2 0x210 DUP7 DUP3 DUP8 ADD PUSH2 0x147 JUMP JUMPDEST SWAP2 POP POP SWAP3 POP SWAP3 POP SWAP3 JUMP INVALID LOG2 PUSH5 0x6970667358 0x22 SLT KECCAK256 PUSH21 0x9A4BF9CA95305C4B14FA2D37198ABC7CE95BE34A83 0xE6 PUSH18 0xFBE1F24DDB7055C964736F6C634300081A00 CALLER "
				},
				"gasEstimates": {
					"creation": {
						"codeDepositCost": "118400",
						"executionCost": "163",
						"totalCost": "118563"
					},
					"external": {
						"addBox(uint256,uint256,uint256)": "infinite",
						"boxes(uint256)": "infinite"
					}
				},
				"methodIdentifiers": {
					"addBox(uint256,uint256,uint256)": "aa1a3a59",
					"boxes(uint256)": "4ed3faf2"
				}
			},
			"storageLayout": {
				"storage": [
					{
						"astId": 12,
						"contract": "tests/exercise2.sol:Exercise2",
						"label": "boxes",
						"offset": 0,
						"slot": "0",
						"type": "t_array(t_struct(Box)8_storage)dyn_storage"
					}
				],
				"types": {
					"t_array(t_struct(Box)8_storage)dyn_storage": {
						"base": "t_struct(Box)8_storage",
						"encoding": "dynamic_array",
						"label": "struct Exercise2.Box[]",
						"numberOfBytes": "32"
					},
					"t_struct(Box)8_storage": {
						"encoding": "inplace",
						"label": "struct Exercise2.Box",
						"members": [
							{
								"astId": 3,
								"contract": "tests/exercise2.sol:Exercise2",
								"label": "width",
								"offset": 0,
								"slot": "0",
								"type": "t_uint256"
							},
							{
								"astId": 5,
								"contract": "tests/exercise2.sol:Exercise2",
								"label": "length",
								"offset": 0,
								"slot": "1",
								"type": "t_uint256"
							},
							{
								"astId": 7,
								"contract": "tests/exercise2.sol:Exercise2",
								"label": "height",
								"offset": 0,
								"slot": "2",
								"type": "t_uint256"
							}
						],
						"numberOfBytes": "96"
					},
					"t_uint256": {
						"encoding": "inplace",
						"label": "uint256",
						"numberOfBytes": "32"
					}
				}
			},
			"userdoc": {
				"kind": "user",
				"methods": {},
				"version": 1
			}
		}
	}
}